{
  "_format": "hh3-artifact-1",
  "contractName": "MerkleAirdrop",
  "sourceName": "contracts/MerkleAirdrop.sol",
  "abi": [
    {
      "inputs": [
        {
          "internalType": "address",
          "name": "tokenAddress",
          "type": "address"
        },
        {
          "internalType": "bytes32",
          "name": "initialMerkleRoot",
          "type": "bytes32"
        },
        {
          "internalType": "address",
          "name": "initialOwner",
          "type": "address"
        }
      ],
      "stateMutability": "nonpayable",
      "type": "constructor"
    },
    {
      "inputs": [
        {
          "internalType": "uint256",
          "name": "index",
          "type": "uint256"
        }
      ],
      "name": "AlreadyClaimed",
      "type": "error"
    },
    {
      "inputs": [],
      "name": "InvalidProof",
      "type": "error"
    },
    {
      "inputs": [
        {
          "internalType": "address",
          "name": "owner",
          "type": "address"
        }
      ],
      "name": "OwnableInvalidOwner",
      "type": "error"
    },
    {
      "inputs": [
        {
          "internalType": "address",
          "name": "account",
          "type": "address"
        }
      ],
      "name": "OwnableUnauthorizedAccount",
      "type": "error"
    },
    {
      "inputs": [],
      "name": "ReentrancyGuardReentrantCall",
      "type": "error"
    },
    {
      "inputs": [
        {
          "internalType": "address",
          "name": "token",
          "type": "address"
        }
      ],
      "name": "SafeERC20FailedOperation",
      "type": "error"
    },
    {
      "inputs": [],
      "name": "ZeroAddress",
      "type": "error"
    },
    {
      "anonymous": false,
      "inputs": [
        {
          "indexed": true,
          "internalType": "uint256",
          "name": "index",
          "type": "uint256"
        },
        {
          "indexed": true,
          "internalType": "address",
          "name": "account",
          "type": "address"
        },
        {
          "indexed": false,
          "internalType": "uint256",
          "name": "amount",
          "type": "uint256"
        }
      ],
      "name": "Claimed",
      "type": "event"
    },
    {
      "anonymous": false,
      "inputs": [
        {
          "indexed": true,
          "internalType": "address",
          "name": "to",
          "type": "address"
        },
        {
          "indexed": false,
          "internalType": "uint256",
          "name": "amount",
          "type": "uint256"
        }
      ],
      "name": "FundsRecovered",
      "type": "event"
    },
    {
      "anonymous": false,
      "inputs": [
        {
          "indexed": true,
          "internalType": "bytes32",
          "name": "newMerkleRoot",
          "type": "bytes32"
        }
      ],
      "name": "MerkleRootUpdated",
      "type": "event"
    },
    {
      "anonymous": false,
      "inputs": [
        {
          "indexed": true,
          "internalType": "address",
          "name": "previousOwner",
          "type": "address"
        },
        {
          "indexed": true,
          "internalType": "address",
          "name": "newOwner",
          "type": "address"
        }
      ],
      "name": "OwnershipTransferred",
      "type": "event"
    },
    {
      "inputs": [
        {
          "internalType": "uint256",
          "name": "index",
          "type": "uint256"
        },
        {
          "internalType": "address",
          "name": "account",
          "type": "address"
        },
        {
          "internalType": "uint256",
          "name": "amount",
          "type": "uint256"
        },
        {
          "internalType": "bytes32[]",
          "name": "merkleProof",
          "type": "bytes32[]"
        }
      ],
      "name": "claim",
      "outputs": [],
      "stateMutability": "nonpayable",
      "type": "function"
    },
    {
      "inputs": [
        {
          "internalType": "uint256",
          "name": "index",
          "type": "uint256"
        }
      ],
      "name": "isClaimed",
      "outputs": [
        {
          "internalType": "bool",
          "name": "",
          "type": "bool"
        }
      ],
      "stateMutability": "view",
      "type": "function"
    },
    {
      "inputs": [],
      "name": "merkleRoot",
      "outputs": [
        {
          "internalType": "bytes32",
          "name": "",
          "type": "bytes32"
        }
      ],
      "stateMutability": "view",
      "type": "function"
    },
    {
      "inputs": [],
      "name": "owner",
      "outputs": [
        {
          "internalType": "address",
          "name": "",
          "type": "address"
        }
      ],
      "stateMutability": "view",
      "type": "function"
    },
    {
      "inputs": [
        {
          "internalType": "address",
          "name": "to",
          "type": "address"
        },
        {
          "internalType": "uint256",
          "name": "amount",
          "type": "uint256"
        }
      ],
      "name": "recover",
      "outputs": [],
      "stateMutability": "nonpayable",
      "type": "function"
    },
    {
      "inputs": [],
      "name": "renounceOwnership",
      "outputs": [],
      "stateMutability": "nonpayable",
      "type": "function"
    },
    {
      "inputs": [
        {
          "internalType": "bytes32",
          "name": "newMerkleRoot",
          "type": "bytes32"
        }
      ],
      "name": "setMerkleRoot",
      "outputs": [],
      "stateMutability": "nonpayable",
      "type": "function"
    },
    {
      "inputs": [],
      "name": "token",
      "outputs": [
        {
          "internalType": "contract IERC20",
          "name": "",
          "type": "address"
        }
      ],
      "stateMutability": "view",
      "type": "function"
    },
    {
      "inputs": [
        {
          "internalType": "address",
          "name": "newOwner",
          "type": "address"
        }
      ],
      "name": "transferOwnership",
      "outputs": [],
      "stateMutability": "nonpayable",
      "type": "function"
    }
  ],
  "bytecode": "0x60a060405234801561000f575f5ffd5b50604051611271380380611271833981810160405281019061003191906102ea565b805f73ffffffffffffffffffffffffffffffffffffffff168173ffffffffffffffffffffffffffffffffffffffff16036100a2575f6040517f1e4fbdf70000000000000000000000000000000000000000000000000000000081526004016100999190610349565b60405180910390fd5b6100b18161019860201b60201c565b50600180819055505f73ffffffffffffffffffffffffffffffffffffffff168373ffffffffffffffffffffffffffffffffffffffff16148061011e57505f73ffffffffffffffffffffffffffffffffffffffff168173ffffffffffffffffffffffffffffffffffffffff16145b15610155576040517fd92e233d00000000000000000000000000000000000000000000000000000000815260040160405180910390fd5b8273ffffffffffffffffffffffffffffffffffffffff1660808173ffffffffffffffffffffffffffffffffffffffff168152505081600281905550505050610362565b5f5f5f9054906101000a900473ffffffffffffffffffffffffffffffffffffffff169050815f5f6101000a81548173ffffffffffffffffffffffffffffffffffffffff021916908373ffffffffffffffffffffffffffffffffffffffff1602179055508173ffffffffffffffffffffffffffffffffffffffff168173ffffffffffffffffffffffffffffffffffffffff167f8be0079c531659141344cd1fd0a4f28419497f9722a3daafe3b4186f6b6457e060405160405180910390a35050565b5f5ffd5b5f73ffffffffffffffffffffffffffffffffffffffff82169050919050565b5f6102868261025d565b9050919050565b6102968161027c565b81146102a0575f5ffd5b50565b5f815190506102b18161028d565b92915050565b5f819050919050565b6102c9816102b7565b81146102d3575f5ffd5b50565b5f815190506102e4816102c0565b92915050565b5f5f5f6060848603121561030157610300610259565b5b5f61030e868287016102a3565b935050602061031f868287016102d6565b9250506040610330868287016102a3565b9150509250925092565b6103438161027c565b82525050565b5f60208201905061035c5f83018461033a565b92915050565b608051610ee96103885f395f81816102d7015281816103f501526105da0152610ee95ff3fe608060405234801561000f575f5ffd5b5060043610610091575f3560e01c80637cb64759116100645780637cb64759146100f55780638da5cb5b146101115780639e34070f1461012f578063f2fde38b1461015f578063fc0c546a1461017b57610091565b80632e7ba6ef146100955780632eb4a7ab146100b15780635705ae43146100cf578063715018a6146100eb575b5f5ffd5b6100af60048036038101906100aa9190610a9c565b610199565b005b6100b961037b565b6040516100c69190610b38565b60405180910390f35b6100e960048036038101906100e49190610b51565b610381565b005b6100f361048b565b005b61010f600480360381019061010a9190610bb9565b61049e565b005b6101196104dd565b6040516101269190610bf3565b60405180910390f35b61014960048036038101906101449190610c0c565b610504565b6040516101569190610c51565b60405180910390f35b61017960048036038101906101749190610c6a565b610554565b005b6101836105d8565b6040516101909190610cf0565b60405180910390f35b6101a16105fc565b3373ffffffffffffffffffffffffffffffffffffffff168473ffffffffffffffffffffffffffffffffffffffff1614610206576040517f09bde33900000000000000000000000000000000000000000000000000000000815260040160405180910390fd5b61020f85610504565b1561025157846040517fb3167bfa0000000000000000000000000000000000000000000000000000000081526004016102489190610d18565b60405180910390fd5b5f85858560405160200161026793929190610d96565b6040516020818303038152906040528051906020012090505f61028e848460025485610642565b9050806102c7576040517f09bde33900000000000000000000000000000000000000000000000000000000815260040160405180910390fd5b6102d08761065a565b61031b86867f000000000000000000000000000000000000000000000000000000000000000073ffffffffffffffffffffffffffffffffffffffff166106a39092919063ffffffff16565b8573ffffffffffffffffffffffffffffffffffffffff16877f4ec90e965519d92681267467f775ada5bd214aa92c0dc93d90a5e880ce9ed026876040516103629190610d18565b60405180910390a35050610374610722565b5050505050565b60025481565b61038961072b565b5f73ffffffffffffffffffffffffffffffffffffffff168273ffffffffffffffffffffffffffffffffffffffff16036103ee576040517fd92e233d00000000000000000000000000000000000000000000000000000000815260040160405180910390fd5b61043982827f000000000000000000000000000000000000000000000000000000000000000073ffffffffffffffffffffffffffffffffffffffff166106a39092919063ffffffff16565b8173ffffffffffffffffffffffffffffffffffffffff167f59bfc682b673f8cbf945f1e454df9334834abf7dfe7f92237ca29ecb9b4366008260405161047f9190610d18565b60405180910390a25050565b61049361072b565b61049c5f6107b2565b565b6104a661072b565b80600281905550807f90004c04698bc3322499a575ed3752dd4abf33e0a7294c06a787a0fe01bea94160405160405180910390a250565b5f5f5f9054906101000a900473ffffffffffffffffffffffffffffffffffffffff16905090565b5f5f610100836105149190610dff565b90505f610100846105259190610e2f565b90505f60035f8481526020019081526020015f205490505f826001901b90508081831614945050505050919050565b61055c61072b565b5f73ffffffffffffffffffffffffffffffffffffffff168173ffffffffffffffffffffffffffffffffffffffff16036105cc575f6040517f1e4fbdf70000000000000000000000000000000000000000000000000000000081526004016105c39190610bf3565b60405180910390fd5b6105d5816107b2565b50565b7f000000000000000000000000000000000000000000000000000000000000000081565b600260015403610638576040517f3ee5aeb500000000000000000000000000000000000000000000000000000000815260040160405180910390fd5b6002600181905550565b5f8261064f868685610873565b149050949350505050565b5f610100826106699190610dff565b90505f6101008361067a9190610e2f565b9050806001901b60035f8481526020019081526020015f205f8282541792505081905550505050565b61071d838473ffffffffffffffffffffffffffffffffffffffff1663a9059cbb85856040516024016106d6929190610e5f565b604051602081830303815290604052915060e01b6020820180517bffffffffffffffffffffffffffffffffffffffffffffffffffffffff83818316178352505050506108c6565b505050565b60018081905550565b610733610961565b73ffffffffffffffffffffffffffffffffffffffff166107516104dd565b73ffffffffffffffffffffffffffffffffffffffff16146107b057610774610961565b6040517f118cdaa70000000000000000000000000000000000000000000000000000000081526004016107a79190610bf3565b60405180910390fd5b565b5f5f5f9054906101000a900473ffffffffffffffffffffffffffffffffffffffff169050815f5f6101000a81548173ffffffffffffffffffffffffffffffffffffffff021916908373ffffffffffffffffffffffffffffffffffffffff1602179055508173ffffffffffffffffffffffffffffffffffffffff168173ffffffffffffffffffffffffffffffffffffffff167f8be0079c531659141344cd1fd0a4f28419497f9722a3daafe3b4186f6b6457e060405160405180910390a35050565b5f5f8290505f5f90505b858590508110156108ba576108ab8287878481811061089f5761089e610e86565b5b90506020020135610968565b9150808060010191505061087d565b50809150509392505050565b5f5f60205f8451602086015f885af1806108e5576040513d5f823e3d81fd5b3d92505f519150505f82146108fe576001811415610919565b5f8473ffffffffffffffffffffffffffffffffffffffff163b145b1561095b57836040517f5274afe70000000000000000000000000000000000000000000000000000000081526004016109529190610bf3565b60405180910390fd5b50505050565b5f33905090565b5f81831061097f5761097a8284610992565b61098a565b6109898383610992565b5b905092915050565b5f825f528160205260405f20905092915050565b5f5ffd5b5f5ffd5b5f819050919050565b6109c0816109ae565b81146109ca575f5ffd5b50565b5f813590506109db816109b7565b92915050565b5f73ffffffffffffffffffffffffffffffffffffffff82169050919050565b5f610a0a826109e1565b9050919050565b610a1a81610a00565b8114610a24575f5ffd5b50565b5f81359050610a3581610a11565b92915050565b5f5ffd5b5f5ffd5b5f5ffd5b5f5f83601f840112610a5c57610a5b610a3b565b5b8235905067ffffffffffffffff811115610a7957610a78610a3f565b5b602083019150836020820283011115610a9557610a94610a43565b5b9250929050565b5f5f5f5f5f60808688031215610ab557610ab46109a6565b5b5f610ac2888289016109cd565b9550506020610ad388828901610a27565b9450506040610ae4888289016109cd565b935050606086013567ffffffffffffffff811115610b0557610b046109aa565b5b610b1188828901610a47565b92509250509295509295909350565b5f819050919050565b610b3281610b20565b82525050565b5f602082019050610b4b5f830184610b29565b92915050565b5f5f60408385031215610b6757610b666109a6565b5b5f610b7485828601610a27565b9250506020610b85858286016109cd565b9150509250929050565b610b9881610b20565b8114610ba2575f5ffd5b50565b5f81359050610bb381610b8f565b92915050565b5f60208284031215610bce57610bcd6109a6565b5b5f610bdb84828501610ba5565b91505092915050565b610bed81610a00565b82525050565b5f602082019050610c065f830184610be4565b92915050565b5f60208284031215610c2157610c206109a6565b5b5f610c2e848285016109cd565b91505092915050565b5f8115159050919050565b610c4b81610c37565b82525050565b5f602082019050610c645f830184610c42565b92915050565b5f60208284031215610c7f57610c7e6109a6565b5b5f610c8c84828501610a27565b91505092915050565b5f819050919050565b5f610cb8610cb3610cae846109e1565b610c95565b6109e1565b9050919050565b5f610cc982610c9e565b9050919050565b5f610cda82610cbf565b9050919050565b610cea81610cd0565b82525050565b5f602082019050610d035f830184610ce1565b92915050565b610d12816109ae565b82525050565b5f602082019050610d2b5f830184610d09565b92915050565b5f819050919050565b610d4b610d46826109ae565b610d31565b82525050565b5f8160601b9050919050565b5f610d6782610d51565b9050919050565b5f610d7882610d5d565b9050919050565b610d90610d8b82610a00565b610d6e565b82525050565b5f610da18286610d3a565b602082019150610db18285610d7f565b601482019150610dc18284610d3a565b602082019150819050949350505050565b7f4e487b71000000000000000000000000000000000000000000000000000000005f52601260045260245ffd5b5f610e09826109ae565b9150610e14836109ae565b925082610e2457610e23610dd2565b5b828204905092915050565b5f610e39826109ae565b9150610e44836109ae565b925082610e5457610e53610dd2565b5b828206905092915050565b5f604082019050610e725f830185610be4565b610e7f6020830184610d09565b9392505050565b7f4e487b71000000000000000000000000000000000000000000000000000000005f52603260045260245ffdfea2646970667358221220a38a22853fa1da4374fc04cc033a75e2103e138d98139b42e85993e67d1846fe64736f6c634300081e0033",
  "linkReferences": {},
  "deployedLinkReferences": {},
  "immutableReferences": {
    "2021": [
      {
        "length": 32,
        "start": 727
      },
      {
        "length": 32,
        "start": 1013
      },
      {
        "length": 32,
        "start": 1498
      }
    ]
  },
  "inputSourceName": "project/contracts/MerkleAirdrop.sol",
  "buildInfoId": "solc-0_8_30-d30fbf1ccc16ea7ef2ae64672975fd7811810893"
}