{
  "_format": "hh-sol-artifact-1",
  "contractName": "MyToken",
  "sourceName": "contracts/MyTokenERC20.sol",
  "abi": [
    {
      "inputs": [
        {
          "internalType": "string",
          "name": "name_",
          "type": "string"
        },
        {
          "internalType": "string",
          "name": "symbol_",
          "type": "string"
        },
        {
          "internalType": "uint256",
          "name": "initialSupplyWhole",
          "type": "uint256"
        }
      ],
      "stateMutability": "nonpayable",
      "type": "constructor"
    },
    {
      "inputs": [
        {
          "internalType": "address",
          "name": "spender",
          "type": "address"
        },
        {
          "internalType": "uint256",
          "name": "allowance",
          "type": "uint256"
        },
        {
          "internalType": "uint256",
          "name": "needed",
          "type": "uint256"
        }
      ],
      "name": "ERC20InsufficientAllowance",
      "type": "error"
    },
    {
      "inputs": [
        {
          "internalType": "address",
          "name": "sender",
          "type": "address"
        },
        {
          "internalType": "uint256",
          "name": "balance",
          "type": "uint256"
        },
        {
          "internalType": "uint256",
          "name": "needed",
          "type": "uint256"
        }
      ],
      "name": "ERC20InsufficientBalance",
      "type": "error"
    },
    {
      "inputs": [
        {
          "internalType": "address",
          "name": "approver",
          "type": "address"
        }
      ],
      "name": "ERC20InvalidApprover",
      "type": "error"
    },
    {
      "inputs": [
        {
          "internalType": "address",
          "name": "receiver",
          "type": "address"
        }
      ],
      "name": "ERC20InvalidReceiver",
      "type": "error"
    },
    {
      "inputs": [
        {
          "internalType": "address",
          "name": "sender",
          "type": "address"
        }
      ],
      "name": "ERC20InvalidSender",
      "type": "error"
    },
    {
      "inputs": [
        {
          "internalType": "address",
          "name": "spender",
          "type": "address"
        }
      ],
      "name": "ERC20InvalidSpender",
      "type": "error"
    },
    {
      "inputs": [],
      "name": "EnforcedPause",
      "type": "error"
    },
    {
      "inputs": [],
      "name": "ExpectedPause",
      "type": "error"
    },
    {
      "inputs": [
        {
          "internalType": "address",
          "name": "owner",
          "type": "address"
        }
      ],
      "name": "OwnableInvalidOwner",
      "type": "error"
    },
    {
      "inputs": [
        {
          "internalType": "address",
          "name": "account",
          "type": "address"
        }
      ],
      "name": "OwnableUnauthorizedAccount",
      "type": "error"
    },
    {
      "anonymous": false,
      "inputs": [
        {
          "indexed": true,
          "internalType": "address",
          "name": "owner",
          "type": "address"
        },
        {
          "indexed": true,
          "internalType": "address",
          "name": "spender",
          "type": "address"
        },
        {
          "indexed": false,
          "internalType": "uint256",
          "name": "value",
          "type": "uint256"
        }
      ],
      "name": "Approval",
      "type": "event"
    },
    {
      "anonymous": false,
      "inputs": [
        {
          "indexed": true,
          "internalType": "address",
          "name": "previousOwner",
          "type": "address"
        },
        {
          "indexed": true,
          "internalType": "address",
          "name": "newOwner",
          "type": "address"
        }
      ],
      "name": "OwnershipTransferred",
      "type": "event"
    },
    {
      "anonymous": false,
      "inputs": [
        {
          "indexed": false,
          "internalType": "address",
          "name": "account",
          "type": "address"
        }
      ],
      "name": "Paused",
      "type": "event"
    },
    {
      "anonymous": false,
      "inputs": [
        {
          "indexed": true,
          "internalType": "address",
          "name": "from",
          "type": "address"
        },
        {
          "indexed": true,
          "internalType": "address",
          "name": "to",
          "type": "address"
        },
        {
          "indexed": false,
          "internalType": "uint256",
          "name": "value",
          "type": "uint256"
        }
      ],
      "name": "Transfer",
      "type": "event"
    },
    {
      "anonymous": false,
      "inputs": [
        {
          "indexed": false,
          "internalType": "address",
          "name": "account",
          "type": "address"
        }
      ],
      "name": "Unpaused",
      "type": "event"
    },
    {
      "inputs": [],
      "name": "CLAIM_AMOUNT",
      "outputs": [
        {
          "internalType": "uint256",
          "name": "",
          "type": "uint256"
        }
      ],
      "stateMutability": "view",
      "type": "function"
    },
    {
      "inputs": [
        {
          "internalType": "address",
          "name": "owner",
          "type": "address"
        },
        {
          "internalType": "address",
          "name": "spender",
          "type": "address"
        }
      ],
      "name": "allowance",
      "outputs": [
        {
          "internalType": "uint256",
          "name": "",
          "type": "uint256"
        }
      ],
      "stateMutability": "view",
      "type": "function"
    },
    {
      "inputs": [
        {
          "internalType": "address",
          "name": "spender",
          "type": "address"
        },
        {
          "internalType": "uint256",
          "name": "value",
          "type": "uint256"
        }
      ],
      "name": "approve",
      "outputs": [
        {
          "internalType": "bool",
          "name": "",
          "type": "bool"
        }
      ],
      "stateMutability": "nonpayable",
      "type": "function"
    },
    {
      "inputs": [
        {
          "internalType": "address",
          "name": "account",
          "type": "address"
        }
      ],
      "name": "balanceOf",
      "outputs": [
        {
          "internalType": "uint256",
          "name": "",
          "type": "uint256"
        }
      ],
      "stateMutability": "view",
      "type": "function"
    },
    {
      "inputs": [
        {
          "internalType": "uint256",
          "name": "value",
          "type": "uint256"
        }
      ],
      "name": "burn",
      "outputs": [],
      "stateMutability": "nonpayable",
      "type": "function"
    },
    {
      "inputs": [
        {
          "internalType": "address",
          "name": "account",
          "type": "address"
        },
        {
          "internalType": "uint256",
          "name": "value",
          "type": "uint256"
        }
      ],
      "name": "burnFrom",
      "outputs": [],
      "stateMutability": "nonpayable",
      "type": "function"
    },
    {
      "inputs": [],
      "name": "claimFreeTokens",
      "outputs": [],
      "stateMutability": "nonpayable",
      "type": "function"
    },
    {
      "inputs": [],
      "name": "decimals",
      "outputs": [
        {
          "internalType": "uint8",
          "name": "",
          "type": "uint8"
        }
      ],
      "stateMutability": "view",
      "type": "function"
    },
    {
      "inputs": [],
      "name": "feeBps",
      "outputs": [
        {
          "internalType": "uint256",
          "name": "",
          "type": "uint256"
        }
      ],
      "stateMutability": "view",
      "type": "function"
    },
    {
      "inputs": [
        {
          "internalType": "address",
          "name": "",
          "type": "address"
        }
      ],
      "name": "hasClaimed",
      "outputs": [
        {
          "internalType": "bool",
          "name": "",
          "type": "bool"
        }
      ],
      "stateMutability": "view",
      "type": "function"
    },
    {
      "inputs": [
        {
          "internalType": "address",
          "name": "",
          "type": "address"
        }
      ],
      "name": "isWhitelisted",
      "outputs": [
        {
          "internalType": "bool",
          "name": "",
          "type": "bool"
        }
      ],
      "stateMutability": "view",
      "type": "function"
    },
    {
      "inputs": [],
      "name": "maxTransferAmount",
      "outputs": [
        {
          "internalType": "uint256",
          "name": "",
          "type": "uint256"
        }
      ],
      "stateMutability": "view",
      "type": "function"
    },
    {
      "inputs": [],
      "name": "name",
      "outputs": [
        {
          "internalType": "string",
          "name": "",
          "type": "string"
        }
      ],
      "stateMutability": "view",
      "type": "function"
    },
    {
      "inputs": [],
      "name": "owner",
      "outputs": [
        {
          "internalType": "address",
          "name": "",
          "type": "address"
        }
      ],
      "stateMutability": "view",
      "type": "function"
    },
    {
      "inputs": [],
      "name": "pause",
      "outputs": [],
      "stateMutability": "nonpayable",
      "type": "function"
    },
    {
      "inputs": [],
      "name": "paused",
      "outputs": [
        {
          "internalType": "bool",
          "name": "",
          "type": "bool"
        }
      ],
      "stateMutability": "view",
      "type": "function"
    },
    {
      "inputs": [],
      "name": "renounceOwnership",
      "outputs": [],
      "stateMutability": "nonpayable",
      "type": "function"
    },
    {
      "inputs": [
        {
          "internalType": "uint256",
          "name": "_feeBps",
          "type": "uint256"
        }
      ],
      "name": "setFeeBps",
      "outputs": [],
      "stateMutability": "nonpayable",
      "type": "function"
    },
    {
      "inputs": [
        {
          "internalType": "uint256",
          "name": "_maxTransferAmount",
          "type": "uint256"
        }
      ],
      "name": "setMaxTransferAmount",
      "outputs": [],
      "stateMutability": "nonpayable",
      "type": "function"
    },
    {
      "inputs": [
        {
          "internalType": "address",
          "name": "_treasuryAddress",
          "type": "address"
        }
      ],
      "name": "setTreasury",
      "outputs": [],
      "stateMutability": "nonpayable",
      "type": "function"
    },
    {
      "inputs": [
        {
          "internalType": "address",
          "name": "_address",
          "type": "address"
        },
        {
          "internalType": "bool",
          "name": "allowed",
          "type": "bool"
        }
      ],
      "name": "setWhitelisted",
      "outputs": [],
      "stateMutability": "nonpayable",
      "type": "function"
    },
    {
      "inputs": [],
      "name": "symbol",
      "outputs": [
        {
          "internalType": "string",
          "name": "",
          "type": "string"
        }
      ],
      "stateMutability": "view",
      "type": "function"
    },
    {
      "inputs": [],
      "name": "totalSupply",
      "outputs": [
        {
          "internalType": "uint256",
          "name": "",
          "type": "uint256"
        }
      ],
      "stateMutability": "view",
      "type": "function"
    },
    {
      "inputs": [
        {
          "internalType": "address",
          "name": "to",
          "type": "address"
        },
        {
          "internalType": "uint256",
          "name": "value",
          "type": "uint256"
        }
      ],
      "name": "transfer",
      "outputs": [
        {
          "internalType": "bool",
          "name": "",
          "type": "bool"
        }
      ],
      "stateMutability": "nonpayable",
      "type": "function"
    },
    {
      "inputs": [
        {
          "internalType": "address",
          "name": "from",
          "type": "address"
        },
        {
          "internalType": "address",
          "name": "to",
          "type": "address"
        },
        {
          "internalType": "uint256",
          "name": "value",
          "type": "uint256"
        }
      ],
      "name": "transferFrom",
      "outputs": [
        {
          "internalType": "bool",
          "name": "",
          "type": "bool"
        }
      ],
      "stateMutability": "nonpayable",
      "type": "function"
    },
    {
      "inputs": [
        {
          "internalType": "address",
          "name": "newOwner",
          "type": "address"
        }
      ],
      "name": "transferOwnership",
      "outputs": [],
      "stateMutability": "nonpayable",
      "type": "function"
    },
    {
      "inputs": [],
      "name": "treasury",
      "outputs": [
        {
          "internalType": "address",
          "name": "",
          "type": "address"
        }
      ],
      "stateMutability": "view",
      "type": "function"
    },
    {
      "inputs": [],
      "name": "unpause",
      "outputs": [],
      "stateMutability": "nonpayable",
      "type": "function"
    }
  ],
  "bytecode": "0x6080604052606460075568056bc75e2d631000006009553480156200002357600080fd5b506040516200341a3803806200341a833981810160405281019062000049919062000b42565b33838381600390816200005d919062000e1d565b5080600490816200006f919062000e1d565b505050600073ffffffffffffffffffffffffffffffffffffffff168173ffffffffffffffffffffffffffffffffffffffff1603620000e75760006040517f1e4fbdf7000000000000000000000000000000000000000000000000000000008152600401620000de919062000f49565b60405180910390fd5b620000f8816200013e60201b60201c565b5062000135336200010e6200020460201b60201c565b600a6200011c9190620010f6565b8362000129919062001147565b6200020d60201b60201c565b505050620013cf565b6000600560009054906101000a900473ffffffffffffffffffffffffffffffffffffffff16905081600560006101000a81548173ffffffffffffffffffffffffffffffffffffffff021916908373ffffffffffffffffffffffffffffffffffffffff1602179055508173ffffffffffffffffffffffffffffffffffffffff168173ffffffffffffffffffffffffffffffffffffffff167f8be0079c531659141344cd1fd0a4f28419497f9722a3daafe3b4186f6b6457e060405160405180910390a35050565b60006012905090565b600073ffffffffffffffffffffffffffffffffffffffff168273ffffffffffffffffffffffffffffffffffffffff1603620002825760006040517fec442f0500000000000000000000000000000000000000000000000000000000815260040162000279919062000f49565b60405180910390fd5b62000296600083836200029a60201b60201c565b5050565b600073ffffffffffffffffffffffffffffffffffffffff168373ffffffffffffffffffffffffffffffffffffffff161480620003025750600073ffffffffffffffffffffffffffffffffffffffff168273ffffffffffffffffffffffffffffffffffffffff16145b1562000321576200031b8383836200072d60201b60201c565b62000728565b600073ffffffffffffffffffffffffffffffffffffffff168373ffffffffffffffffffffffffffffffffffffffff16141580156200038c5750600073ffffffffffffffffffffffffffffffffffffffff168273ffffffffffffffffffffffffffffffffffffffff1614155b8015620004375750600b60008473ffffffffffffffffffffffffffffffffffffffff1673ffffffffffffffffffffffffffffffffffffffff16815260200190815260200160002060009054906101000a900460ff1680620004365750600b60008373ffffffffffffffffffffffffffffffffffffffff1673ffffffffffffffffffffffffffffffffffffffff16815260200190815260200160002060009054906101000a900460ff165b5b156200045657620004508383836200072d60201b60201c565b62000728565b620004666200095d60201b60201c565b15620004a9576040517f08c379a0000000000000000000000000000000000000000000000000000000008152600401620004a090620011f3565b60405180910390fd5b600073ffffffffffffffffffffffffffffffffffffffff168373ffffffffffffffffffffffffffffffffffffffff1614158015620005145750600073ffffffffffffffffffffffffffffffffffffffff168273ffffffffffffffffffffffffffffffffffffffff1614155b80156200056f5750600660009054906101000a900473ffffffffffffffffffffffffffffffffffffffff1673ffffffffffffffffffffffffffffffffffffffff168273ffffffffffffffffffffffffffffffffffffffff1614155b8015620005ca5750600660009054906101000a900473ffffffffffffffffffffffffffffffffffffffff1673ffffffffffffffffffffffffffffffffffffffff168373ffffffffffffffffffffffffffffffffffffffff1614155b8015620006265750600073ffffffffffffffffffffffffffffffffffffffff16600660009054906101000a900473ffffffffffffffffffffffffffffffffffffffff1673ffffffffffffffffffffffffffffffffffffffff1614155b80156200063557506000600754115b1562000714576000600854146200068f576008548111156200068e576040517f08c379a0000000000000000000000000000000000000000000000000000000008152600401620006859062001265565b60405180910390fd5b5b600061271060075483620006a4919062001147565b620006b09190620012b6565b905060008183620006c29190620012ee565b9050620006f985600660009054906101000a900473ffffffffffffffffffffffffffffffffffffffff16846200072d60201b60201c565b6200070c8585836200072d60201b60201c565b505062000728565b620007278383836200072d60201b60201c565b5b505050565b600073ffffffffffffffffffffffffffffffffffffffff168373ffffffffffffffffffffffffffffffffffffffff16036200078357806002600082825462000776919062001329565b9250508190555062000859565b60008060008573ffffffffffffffffffffffffffffffffffffffff1673ffffffffffffffffffffffffffffffffffffffff1681526020019081526020016000205490508181101562000812578381836040517fe450d38c000000000000000000000000000000000000000000000000000000008152600401620008099392919062001375565b60405180910390fd5b8181036000808673ffffffffffffffffffffffffffffffffffffffff1673ffffffffffffffffffffffffffffffffffffffff16815260200190815260200160002081905550505b600073ffffffffffffffffffffffffffffffffffffffff168273ffffffffffffffffffffffffffffffffffffffff1603620008a45780600260008282540392505081905550620008f1565b806000808473ffffffffffffffffffffffffffffffffffffffff1673ffffffffffffffffffffffffffffffffffffffff168152602001908152602001600020600082825401925050819055505b8173ffffffffffffffffffffffffffffffffffffffff168373ffffffffffffffffffffffffffffffffffffffff167fddf252ad1be2c89b69c2b068fc378daa952ba7f163c4a11628f55a4df523b3ef83604051620009509190620013b2565b60405180910390a3505050565b6000600560149054906101000a900460ff16905090565b6000604051905090565b600080fd5b600080fd5b600080fd5b600080fd5b6000601f19601f8301169050919050565b7f4e487b7100000000000000000000000000000000000000000000000000000000600052604160045260246000fd5b620009dd8262000992565b810181811067ffffffffffffffff82111715620009ff57620009fe620009a3565b5b80604052505050565b600062000a1462000974565b905062000a228282620009d2565b919050565b600067ffffffffffffffff82111562000a455762000a44620009a3565b5b62000a508262000992565b9050602081019050919050565b60005b8381101562000a7d57808201518184015260208101905062000a60565b60008484015250505050565b600062000aa062000a9a8462000a27565b62000a08565b90508281526020810184848401111562000abf5762000abe6200098d565b5b62000acc84828562000a5d565b509392505050565b600082601f83011262000aec5762000aeb62000988565b5b815162000afe84826020860162000a89565b91505092915050565b6000819050919050565b62000b1c8162000b07565b811462000b2857600080fd5b50565b60008151905062000b3c8162000b11565b92915050565b60008060006060848603121562000b5e5762000b5d6200097e565b5b600084015167ffffffffffffffff81111562000b7f5762000b7e62000983565b5b62000b8d8682870162000ad4565b935050602084015167ffffffffffffffff81111562000bb15762000bb062000983565b5b62000bbf8682870162000ad4565b925050604062000bd28682870162000b2b565b9150509250925092565b600081519050919050565b7f4e487b7100000000000000000000000000000000000000000000000000000000600052602260045260246000fd5b6000600282049050600182168062000c2f57607f821691505b60208210810362000c455762000c4462000be7565b5b50919050565b60008190508160005260206000209050919050565b60006020601f8301049050919050565b600082821b905092915050565b60006008830262000caf7fffffffffffffffffffffffffffffffffffffffffffffffffffffffffffffffff8262000c70565b62000cbb868362000c70565b95508019841693508086168417925050509392505050565b6000819050919050565b600062000cfe62000cf862000cf28462000b07565b62000cd3565b62000b07565b9050919050565b6000819050919050565b62000d1a8362000cdd565b62000d3262000d298262000d05565b84845462000c7d565b825550505050565b600090565b62000d4962000d3a565b62000d5681848462000d0f565b505050565b5b8181101562000d7e5762000d7260008262000d3f565b60018101905062000d5c565b5050565b601f82111562000dcd5762000d978162000c4b565b62000da28462000c60565b8101602085101562000db2578190505b62000dca62000dc18562000c60565b83018262000d5b565b50505b505050565b600082821c905092915050565b600062000df26000198460080262000dd2565b1980831691505092915050565b600062000e0d838362000ddf565b9150826002028217905092915050565b62000e288262000bdc565b67ffffffffffffffff81111562000e445762000e43620009a3565b5b62000e50825462000c16565b62000e5d82828562000d82565b600060209050601f83116001811462000e95576000841562000e80578287015190505b62000e8c858262000dff565b86555062000efc565b601f19841662000ea58662000c4b565b60005b8281101562000ecf5784890151825560018201915060208501945060208101905062000ea8565b8683101562000eef578489015162000eeb601f89168262000ddf565b8355505b6001600288020188555050505b505050505050565b600073ffffffffffffffffffffffffffffffffffffffff82169050919050565b600062000f318262000f04565b9050919050565b62000f438162000f24565b82525050565b600060208201905062000f60600083018462000f38565b92915050565b7f4e487b7100000000000000000000000000000000000000000000000000000000600052601160045260246000fd5b60008160011c9050919050565b6000808291508390505b600185111562000ff45780860481111562000fcc5762000fcb62000f66565b5b600185161562000fdc5780820291505b808102905062000fec8562000f95565b945062000fac565b94509492505050565b6000826200100f5760019050620010e2565b816200101f5760009050620010e2565b8160018114620010385760028114620010435762001079565b6001915050620010e2565b60ff84111562001058576200105762000f66565b5b8360020a91508482111562001072576200107162000f66565b5b50620010e2565b5060208310610133831016604e8410600b8410161715620010b35782820a905083811115620010ad57620010ac62000f66565b5b620010e2565b620010c2848484600162000fa2565b92509050818404811115620010dc57620010db62000f66565b5b81810290505b9392505050565b600060ff82169050919050565b6000620011038262000b07565b91506200111083620010e9565b92506200113f7fffffffffffffffffffffffffffffffffffffffffffffffffffffffffffffffff848462000ffd565b905092915050565b6000620011548262000b07565b9150620011618362000b07565b9250828202620011718162000b07565b915082820484148315176200118b576200118a62000f66565b5b5092915050565b600082825260208201905092915050565b7f546f6b656e206973207061757365640000000000000000000000000000000000600082015250565b6000620011db600f8362001192565b9150620011e882620011a3565b602082019050919050565b600060208201905081810360008301526200120e81620011cc565b9050919050565b7f746f6f20626967207472616e7366657200000000000000000000000000000000600082015250565b60006200124d60108362001192565b91506200125a8262001215565b602082019050919050565b6000602082019050818103600083015262001280816200123e565b9050919050565b7f4e487b7100000000000000000000000000000000000000000000000000000000600052601260045260246000fd5b6000620012c38262000b07565b9150620012d08362000b07565b925082620012e357620012e262001287565b5b828204905092915050565b6000620012fb8262000b07565b9150620013088362000b07565b925082820390508181111562001323576200132262000f66565b5b92915050565b6000620013368262000b07565b9150620013438362000b07565b92508282019050808211156200135e576200135d62000f66565b5b92915050565b6200136f8162000b07565b82525050565b60006060820190506200138c600083018662000f38565b6200139b602083018562001364565b620013aa604083018462001364565b949350505050565b6000602082019050620013c9600083018462001364565b92915050565b61203b80620013df6000396000f3fe608060405234801561001057600080fd5b50600436106101c45760003560e01c806372c27b62116100f957806395d89b4111610097578063dd62ed3e11610071578063dd62ed3e146104bf578063f0f44260146104ef578063f14d21811461050b578063f2fde38b14610515576101c4565b806395d89b4114610453578063a9059cbb14610471578063a9e75723146104a1576101c4565b80638456cb59116100d35780638456cb59146103f35780638bf55409146103fd5780638da5cb5b146104195780639281aa0b14610437576101c4565b806372c27b621461038b57806373b2e80e146103a757806379cc6790146103d7576101c4565b80633af32abf116101665780635c975abb116101405780635c975abb1461031557806361d027b31461033357806370a0823114610351578063715018a614610381576101c4565b80633af32abf146102bf5780633f4ba83a146102ef57806342966c68146102f9576101c4565b806323b872dd116101a257806323b872dd1461023557806324a9d85314610265578063270ef38514610283578063313ce567146102a1576101c4565b806306fdde03146101c9578063095ea7b3146101e757806318160ddd14610217575b600080fd5b6101d1610531565b6040516101de9190611970565b60405180910390f35b61020160048036038101906101fc9190611a2b565b6105c3565b60405161020e9190611a86565b60405180910390f35b61021f6105e6565b60405161022c9190611ab0565b60405180910390f35b61024f600480360381019061024a9190611acb565b6105f0565b60405161025c9190611a86565b60405180910390f35b61026d61061f565b60405161027a9190611ab0565b60405180910390f35b61028b610625565b6040516102989190611ab0565b60405180910390f35b6102a961062b565b6040516102b69190611b3a565b60405180910390f35b6102d960048036038101906102d49190611b55565b610634565b6040516102e69190611a86565b60405180910390f35b6102f7610654565b005b610313600480360381019061030e9190611b82565b610666565b005b61031d61067a565b60405161032a9190611a86565b60405180910390f35b61033b610691565b6040516103489190611bbe565b60405180910390f35b61036b60048036038101906103669190611b55565b6106b7565b6040516103789190611ab0565b60405180910390f35b6103896106ff565b005b6103a560048036038101906103a09190611b82565b610713565b005b6103c160048036038101906103bc9190611b55565b61076a565b6040516103ce9190611a86565b60405180910390f35b6103f160048036038101906103ec9190611a2b565b61078a565b005b6103fb6107aa565b005b61041760048036038101906104129190611b82565b6107bc565b005b6104216107ce565b60405161042e9190611bbe565b60405180910390f35b610451600480360381019061044c9190611c05565b6107f8565b005b61045b61085b565b6040516104689190611970565b60405180910390f35b61048b60048036038101906104869190611a2b565b6108ed565b6040516104989190611a86565b60405180910390f35b6104a9610910565b6040516104b69190611ab0565b60405180910390f35b6104d960048036038101906104d49190611c45565b610916565b6040516104e69190611ab0565b60405180910390f35b61050960048036038101906105049190611b55565b61099d565b005b6105136109e9565b005b61052f600480360381019061052a9190611b55565b610adc565b005b60606003805461054090611cb4565b80601f016020809104026020016040519081016040528092919081815260200182805461056c90611cb4565b80156105b95780601f1061058e576101008083540402835291602001916105b9565b820191906000526020600020905b81548152906001019060200180831161059c57829003601f168201915b5050505050905090565b6000806105ce610b62565b90506105db818585610b6a565b600191505092915050565b6000600254905090565b6000806105fb610b62565b9050610608858285610b7c565b610613858585610c11565b60019150509392505050565b60075481565b60095481565b60006012905090565b600b6020528060005260406000206000915054906101000a900460ff1681565b61065c610d05565b610664610d8c565b565b610677610671610b62565b82610def565b50565b6000600560149054906101000a900460ff16905090565b600660009054906101000a900473ffffffffffffffffffffffffffffffffffffffff1681565b60008060008373ffffffffffffffffffffffffffffffffffffffff1673ffffffffffffffffffffffffffffffffffffffff168152602001908152602001600020549050919050565b610707610d05565b6107116000610e71565b565b61071b610d05565b6101f4811115610760576040517f08c379a000000000000000000000000000000000000000000000000000000000815260040161075790611d31565b60405180910390fd5b8060078190555050565b600a6020528060005260406000206000915054906101000a900460ff1681565b61079c82610796610b62565b83610b7c565b6107a68282610def565b5050565b6107b2610d05565b6107ba610f37565b565b6107c4610d05565b8060088190555050565b6000600560009054906101000a900473ffffffffffffffffffffffffffffffffffffffff16905090565b610800610d05565b80600b60008473ffffffffffffffffffffffffffffffffffffffff1673ffffffffffffffffffffffffffffffffffffffff16815260200190815260200160002060006101000a81548160ff0219169083151502179055505050565b60606004805461086a90611cb4565b80601f016020809104026020016040519081016040528092919081815260200182805461089690611cb4565b80156108e35780601f106108b8576101008083540402835291602001916108e3565b820191906000526020600020905b8154815290600101906020018083116108c657829003601f168201915b5050505050905090565b6000806108f8610b62565b9050610905818585610c11565b600191505092915050565b60085481565b6000600160008473ffffffffffffffffffffffffffffffffffffffff1673ffffffffffffffffffffffffffffffffffffffff16815260200190815260200160002060008373ffffffffffffffffffffffffffffffffffffffff1673ffffffffffffffffffffffffffffffffffffffff16815260200190815260200160002054905092915050565b6109a5610d05565b80600660006101000a81548173ffffffffffffffffffffffffffffffffffffffff021916908373ffffffffffffffffffffffffffffffffffffffff16021790555050565b600a60003373ffffffffffffffffffffffffffffffffffffffff1673ffffffffffffffffffffffffffffffffffffffff16815260200190815260200160002060009054906101000a900460ff1615610a76576040517f08c379a0000000000000000000000000000000000000000000000000000000008152600401610a6d90611d9d565b60405180910390fd5b6001600a60003373ffffffffffffffffffffffffffffffffffffffff1673ffffffffffffffffffffffffffffffffffffffff16815260200190815260200160002060006101000a81548160ff021916908315150217905550610ada33600954610f9a565b565b610ae4610d05565b600073ffffffffffffffffffffffffffffffffffffffff168173ffffffffffffffffffffffffffffffffffffffff1603610b565760006040517f1e4fbdf7000000000000000000000000000000000000000000000000000000008152600401610b4d9190611bbe565b60405180910390fd5b610b5f81610e71565b50565b600033905090565b610b77838383600161101c565b505050565b6000610b888484610916565b90507fffffffffffffffffffffffffffffffffffffffffffffffffffffffffffffffff811015610c0b5781811015610bfb578281836040517ffb8f41b2000000000000000000000000000000000000000000000000000000008152600401610bf293929190611dbd565b60405180910390fd5b610c0a8484848403600061101c565b5b50505050565b600073ffffffffffffffffffffffffffffffffffffffff168373ffffffffffffffffffffffffffffffffffffffff1603610c835760006040517f96c6fd1e000000000000000000000000000000000000000000000000000000008152600401610c7a9190611bbe565b60405180910390fd5b600073ffffffffffffffffffffffffffffffffffffffff168273ffffffffffffffffffffffffffffffffffffffff1603610cf55760006040517fec442f05000000000000000000000000000000000000000000000000000000008152600401610cec9190611bbe565b60405180910390fd5b610d008383836111f3565b505050565b610d0d610b62565b73ffffffffffffffffffffffffffffffffffffffff16610d2b6107ce565b73ffffffffffffffffffffffffffffffffffffffff1614610d8a57610d4e610b62565b6040517f118cdaa7000000000000000000000000000000000000000000000000000000008152600401610d819190611bbe565b60405180910390fd5b565b610d9461163a565b6000600560146101000a81548160ff0219169083151502179055507f5db9ee0a495bf2e6ff9c91a7834c1ba4fdd244a5e8aa4e537bd38aeae4b073aa610dd8610b62565b604051610de59190611bbe565b60405180910390a1565b600073ffffffffffffffffffffffffffffffffffffffff168273ffffffffffffffffffffffffffffffffffffffff1603610e615760006040517f96c6fd1e000000000000000000000000000000000000000000000000000000008152600401610e589190611bbe565b60405180910390fd5b610e6d826000836111f3565b5050565b6000600560009054906101000a900473ffffffffffffffffffffffffffffffffffffffff16905081600560006101000a81548173ffffffffffffffffffffffffffffffffffffffff021916908373ffffffffffffffffffffffffffffffffffffffff1602179055508173ffffffffffffffffffffffffffffffffffffffff168173ffffffffffffffffffffffffffffffffffffffff167f8be0079c531659141344cd1fd0a4f28419497f9722a3daafe3b4186f6b6457e060405160405180910390a35050565b610f3f61167a565b6001600560146101000a81548160ff0219169083151502179055507f62e78cea01bee320cd4e420270b5ea74000d11b0c9f74754ebdbfc544b05a258610f83610b62565b604051610f909190611bbe565b60405180910390a1565b600073ffffffffffffffffffffffffffffffffffffffff168273ffffffffffffffffffffffffffffffffffffffff160361100c5760006040517fec442f050000000000000000000000000000000000000000000000000000000081526004016110039190611bbe565b60405180910390fd5b611018600083836111f3565b5050565b600073ffffffffffffffffffffffffffffffffffffffff168473ffffffffffffffffffffffffffffffffffffffff160361108e5760006040517fe602df050000000000000000000000000000000000000000000000000000000081526004016110859190611bbe565b60405180910390fd5b600073ffffffffffffffffffffffffffffffffffffffff168373ffffffffffffffffffffffffffffffffffffffff16036111005760006040517f94280d620000000000000000000000000000000000000000000000000000000081526004016110f79190611bbe565b60405180910390fd5b81600160008673ffffffffffffffffffffffffffffffffffffffff1673ffffffffffffffffffffffffffffffffffffffff16815260200190815260200160002060008573ffffffffffffffffffffffffffffffffffffffff1673ffffffffffffffffffffffffffffffffffffffff1681526020019081526020016000208190555080156111ed578273ffffffffffffffffffffffffffffffffffffffff168473ffffffffffffffffffffffffffffffffffffffff167f8c5be1e5ebec7d5bd14f71427d1e84f3dd0314c0f7b2291e5b200ac8c7c3b925846040516111e49190611ab0565b60405180910390a35b50505050565b600073ffffffffffffffffffffffffffffffffffffffff168373ffffffffffffffffffffffffffffffffffffffff16148061125a5750600073ffffffffffffffffffffffffffffffffffffffff168273ffffffffffffffffffffffffffffffffffffffff16145b1561126f5761126a8383836116bb565b611635565b600073ffffffffffffffffffffffffffffffffffffffff168373ffffffffffffffffffffffffffffffffffffffff16141580156112d95750600073ffffffffffffffffffffffffffffffffffffffff168273ffffffffffffffffffffffffffffffffffffffff1614155b80156113825750600b60008473ffffffffffffffffffffffffffffffffffffffff1673ffffffffffffffffffffffffffffffffffffffff16815260200190815260200160002060009054906101000a900460ff16806113815750600b60008373ffffffffffffffffffffffffffffffffffffffff1673ffffffffffffffffffffffffffffffffffffffff16815260200190815260200160002060009054906101000a900460ff165b5b15611397576113928383836116bb565b611635565b61139f61067a565b156113df576040517f08c379a00000000000000000000000000000000000000000000000000000000081526004016113d690611e40565b60405180910390fd5b600073ffffffffffffffffffffffffffffffffffffffff168373ffffffffffffffffffffffffffffffffffffffff16141580156114495750600073ffffffffffffffffffffffffffffffffffffffff168273ffffffffffffffffffffffffffffffffffffffff1614155b80156114a35750600660009054906101000a900473ffffffffffffffffffffffffffffffffffffffff1673ffffffffffffffffffffffffffffffffffffffff168273ffffffffffffffffffffffffffffffffffffffff1614155b80156114fd5750600660009054906101000a900473ffffffffffffffffffffffffffffffffffffffff1673ffffffffffffffffffffffffffffffffffffffff168373ffffffffffffffffffffffffffffffffffffffff1614155b80156115585750600073ffffffffffffffffffffffffffffffffffffffff16600660009054906101000a900473ffffffffffffffffffffffffffffffffffffffff1673ffffffffffffffffffffffffffffffffffffffff1614155b801561156657506000600754115b15611629576000600854146115bb576008548111156115ba576040517f08c379a00000000000000000000000000000000000000000000000000000000081526004016115b190611eac565b60405180910390fd5b5b6000612710600754836115ce9190611efb565b6115d89190611f6c565b9050600081836115e89190611f9d565b905061161785600660009054906101000a900473ffffffffffffffffffffffffffffffffffffffff16846116bb565b6116228585836116bb565b5050611635565b6116348383836116bb565b5b505050565b61164261067a565b611678576040517f8dfc202b00000000000000000000000000000000000000000000000000000000815260040160405180910390fd5b565b61168261067a565b156116b9576040517fd93c066500000000000000000000000000000000000000000000000000000000815260040160405180910390fd5b565b600073ffffffffffffffffffffffffffffffffffffffff168373ffffffffffffffffffffffffffffffffffffffff160361170d5780600260008282546117019190611fd1565b925050819055506117e0565b60008060008573ffffffffffffffffffffffffffffffffffffffff1673ffffffffffffffffffffffffffffffffffffffff16815260200190815260200160002054905081811015611799578381836040517fe450d38c00000000000000000000000000000000000000000000000000000000815260040161179093929190611dbd565b60405180910390fd5b8181036000808673ffffffffffffffffffffffffffffffffffffffff1673ffffffffffffffffffffffffffffffffffffffff16815260200190815260200160002081905550505b600073ffffffffffffffffffffffffffffffffffffffff168273ffffffffffffffffffffffffffffffffffffffff16036118295780600260008282540392505081905550611876565b806000808473ffffffffffffffffffffffffffffffffffffffff1673ffffffffffffffffffffffffffffffffffffffff168152602001908152602001600020600082825401925050819055505b8173ffffffffffffffffffffffffffffffffffffffff168373ffffffffffffffffffffffffffffffffffffffff167fddf252ad1be2c89b69c2b068fc378daa952ba7f163c4a11628f55a4df523b3ef836040516118d39190611ab0565b60405180910390a3505050565b600081519050919050565b600082825260208201905092915050565b60005b8381101561191a5780820151818401526020810190506118ff565b60008484015250505050565b6000601f19601f8301169050919050565b6000611942826118e0565b61194c81856118eb565b935061195c8185602086016118fc565b61196581611926565b840191505092915050565b6000602082019050818103600083015261198a8184611937565b905092915050565b600080fd5b600073ffffffffffffffffffffffffffffffffffffffff82169050919050565b60006119c282611997565b9050919050565b6119d2816119b7565b81146119dd57600080fd5b50565b6000813590506119ef816119c9565b92915050565b6000819050919050565b611a08816119f5565b8114611a1357600080fd5b50565b600081359050611a25816119ff565b92915050565b60008060408385031215611a4257611a41611992565b5b6000611a50858286016119e0565b9250506020611a6185828601611a16565b9150509250929050565b60008115159050919050565b611a8081611a6b565b82525050565b6000602082019050611a9b6000830184611a77565b92915050565b611aaa816119f5565b82525050565b6000602082019050611ac56000830184611aa1565b92915050565b600080600060608486031215611ae457611ae3611992565b5b6000611af2868287016119e0565b9350506020611b03868287016119e0565b9250506040611b1486828701611a16565b9150509250925092565b600060ff82169050919050565b611b3481611b1e565b82525050565b6000602082019050611b4f6000830184611b2b565b92915050565b600060208284031215611b6b57611b6a611992565b5b6000611b79848285016119e0565b91505092915050565b600060208284031215611b9857611b97611992565b5b6000611ba684828501611a16565b91505092915050565b611bb8816119b7565b82525050565b6000602082019050611bd36000830184611baf565b92915050565b611be281611a6b565b8114611bed57600080fd5b50565b600081359050611bff81611bd9565b92915050565b60008060408385031215611c1c57611c1b611992565b5b6000611c2a858286016119e0565b9250506020611c3b85828601611bf0565b9150509250929050565b60008060408385031215611c5c57611c5b611992565b5b6000611c6a858286016119e0565b9250506020611c7b858286016119e0565b9150509250929050565b7f4e487b7100000000000000000000000000000000000000000000000000000000600052602260045260246000fd5b60006002820490506001821680611ccc57607f821691505b602082108103611cdf57611cde611c85565b5b50919050565b7f66656520746f6f20686967680000000000000000000000000000000000000000600082015250565b6000611d1b600c836118eb565b9150611d2682611ce5565b602082019050919050565b60006020820190508181036000830152611d4a81611d0e565b9050919050565b7f616c726561647920636c61696d65640000000000000000000000000000000000600082015250565b6000611d87600f836118eb565b9150611d9282611d51565b602082019050919050565b60006020820190508181036000830152611db681611d7a565b9050919050565b6000606082019050611dd26000830186611baf565b611ddf6020830185611aa1565b611dec6040830184611aa1565b949350505050565b7f546f6b656e206973207061757365640000000000000000000000000000000000600082015250565b6000611e2a600f836118eb565b9150611e3582611df4565b602082019050919050565b60006020820190508181036000830152611e5981611e1d565b9050919050565b7f746f6f20626967207472616e7366657200000000000000000000000000000000600082015250565b6000611e966010836118eb565b9150611ea182611e60565b602082019050919050565b60006020820190508181036000830152611ec581611e89565b9050919050565b7f4e487b7100000000000000000000000000000000000000000000000000000000600052601160045260246000fd5b6000611f06826119f5565b9150611f11836119f5565b9250828202611f1f816119f5565b91508282048414831517611f3657611f35611ecc565b5b5092915050565b7f4e487b7100000000000000000000000000000000000000000000000000000000600052601260045260246000fd5b6000611f77826119f5565b9150611f82836119f5565b925082611f9257611f91611f3d565b5b828204905092915050565b6000611fa8826119f5565b9150611fb3836119f5565b9250828203905081811115611fcb57611fca611ecc565b5b92915050565b6000611fdc826119f5565b9150611fe7836119f5565b9250828201905080821115611fff57611ffe611ecc565b5b9291505056fea2646970667358221220dcece79b06fdefa01c5b801cadfb0b77023bd05d0f38c01f39e960c10b8c129e64736f6c63430008140033",
  "linkReferences": {},
  "deployedLinkReferences": {}
}